:020000040800F2
:10000000F847002025030008FB190008BD17000869
:10001000F91900087F050008C11A00080000000057
:100020000000000000000000000000006502000861
:10003000CD05000800000000C1020008051A0008F4
:100040003F0300083F0300083F0300083F03000888
:100050003F0300083F0300083F0300083F03000878
:100060003F0300083F0300083F0300083F03000868
:100070003F0300083F0300083F0300083F03000858
:100080003F0300083F0300083F0300083F03000848
:10009000810500083F0300083F0300083F030008F4
:1000A0003F0300083F0300083F0300083F03000828
:1000B0003F0300083F0300083F0300083F03000818
:1000C0003F0300083F0300083F0300083F03000808
:1000D0003F0300083F0300083F0300083F030008F8
:1000E0003F0300083F0300083F0300083F030008E8
:1000F0003F0300083F0300083F0300083F030008D8
:100100003F0300083F0300083F0300083F030008C7
:100110003F0300083F0300083F0300083F030008B7
:100120003F0300083F0300083F0300083F030008A7
:100130003F03000800000000000000003F0300082B
:100140003F0300083F0300083F0300083F03000887
:100150003F0300083F0300083F0300083F03000877
:100160003F0300083F0300083F0300083F03000867
:100170003F0300083F0300083F03000800000000A1
:10018000000000003F030008000000000000000025
:100190003F03000800000000000000003F030008CB
:1001A0000000000000000000000000003F03000805
:1001B0003F0300083F0300083F0300083F03000817
:1001C0003F03000800F002F800F03CF80AA090E8B5
:1001D000000C82448344AAF10107DA4501D100F002
:1001E00031F8AFF2090EBAE80F0013F0010F18BF93
:1001F000FB1A43F0010318471426000034260000C0
:10020000103A24BF78C878C1FAD8520724BF30C842
:1002100030C144BF04680C60704700000023002414
:1002200000250026103A28BF78C1FBD8520728BF06
:1002300030C148BF0B6070471FB502F0B1FA1FBD57
:1002400010B510BD00F061F91146FFF7F5FF01F0A0
:100250008DFC00F07FF903B4FFF7F2FF03BC00F060
:1002600087F900002C4B19680868B0E8F04F80F35C
:100270000988BFF36F8F4FF0000080F3118870473B
:100280000000000008480068006880F308884FF00C
:10029000000080F3148862B661B6BFF34F8FBFF3DE
:1002A0006F8F00DF00BF00BF08ED00E0DFF80C003B
:1002B000016841F470010160704700BF88ED00E003
:1002C000EFF30980BFF36F8F134B1A681EF0100F06
:1002D00008BF20ED108A20E9F04F106009B44FF0FC
:1002E000500080F31188BFF34F8FBFF36F8F02F080
:1002F0006BF84FF0000080F3118809BC196808689A
:10030000B0E8F04F1EF0100F08BFB0EC108A80F379
:100310000988BFF36F8F70471C000020EFF3058042
:10032000704700000948804709480047FEE7FEE79C
:10033000FEE7FEE7FEE7FEE7FEE7FEE7FEE7FEE795
:1003400004480549054A064B70470000B11A0008E9
:10035000C5010008F8410020F8470020F8430020BC
:10036000F843002053EA020C00F069802DE9F04BBD
:100370004FF00006002B1FBFB3FA83F503FA05F414
:1003800024FA05F65E4012BF1643B2FA82F502FA6D
:1003900005F4C5F120051EBF22FA05FC44EA0C0451
:1003A000203556EA044C4FEA144418BF641C4FF041
:1003B00000084FF00009904271EB030C39D300297B
:1003C00019BFB1FA81F701FA07F6B0FA80F700FA1F
:1003D00007F6C7F120071EBF20FA07FC46EA0C0605
:1003E0002037B6FBF4FCA7EB0507103F07F01F0B07
:1003F000CBF120060CFA0BFB2CFA06F644BFB346F1
:100400000026202FA4BF5E464FF0000B5BEA060CCF
:1004100008BF4FF0010B19EB0B09ABFB027C48EB5B
:100420000608C01B06FB02CC0BFB03CC71EB0C01D6
:10043000C1E70B46024641464846BDE8F08B13B57E
:100440004FF000004FF00001AFF30080BDE81C400A
:10045000704710B5203AC0F00B80B1E81850203A30
:10046000A0E81850B1E81850A0E81850BFF4F5AF54
:100470005FEA027C24BFB1E81850A0E8185044BFDE
:1004800018C918C0BDE810405FEA827C24BF51F84B
:10049000043B40F8043B08BF7047D20728BF31F83F
:1004A000023B48BF11F8012B28BF20F8023B48BF90
:1004B00000F8012B70474FF0000200B51346944638
:1004C0009646203922BFA0E80C50A0E80C50B1F1AC
:1004D0002001BFF4F7AF090728BFA0E80C5048BFC0
:1004E0000CC05DF804EB890028BF40F8042B08BF5E
:1004F000704748BF20F8022B11F0804F18BF00F85A
:10050000012B7047704770477047754600F02CF814
:10051000AE4605006946534620F00700854618B0F0
:1005200020B5FFF70DFFBDE820404FF000064FF06B
:1005300000074FF000084FF0000B21F00701AC4618
:10054000ACE8C009ACE8C009ACE8C009ACE8C00937
:100550008D46704710B50446AFF300802046BDE8D5
:100560001040FFF778BE000000487047944100201B
:1005700001491820ABBEFEE7260002007047FEE7E7
:10058000014800F098B90000E002002070B50E4C60
:1005900015460646216000216160A160C4E903138D
:1005A0000123214600F027F860B102232A462146A4
:1005B000304600F020F828B104232A462146304670
:1005C00000F019F8002070BDDC400020704772B6C2
:1005D000FEE790F82020012A07D0022A05D0416AC0
:1005E00041F48021416201207047006842690A435A
:1005F000426100207047F0B590F820500468A4686C
:10060000012D05D0022D03D0416A41F4802153E031
:1006100014F0406F01D1E5004BD5C4F30164022C06
:1006200003D9416A41F4000146E00125A5401D605F
:100630008D684FF4C0739DB1CE6835434E6845EA6E
:10064000C605066803EB0417F5514FF4C275076839
:1006500005EB04150E697E51097D012905D009E0DD
:100660000E88CD6845EA4655EBE701684E5946F4D9
:1006700080764E511179D2F805504FF4C67641EA92
:100680000525016806EB04168D511178D2F801207A
:100690004FF4C47541EA0221026805EB041551517B
:1006A000006803EB0411425842F00102425000205E
:1006B000F0BD416A41F4001141620120F0BD00002B
:1006C00010B590F82020012A07D0022A05D0416AEF
:1006D00041F480214162012010BD3B48D0F8002246
:1006E00042F00102C0F80022D0F8002222F47C522D
:1006F000C0F80022D0F800224B6A42EA0322C0F878
:1007000000220A7D02F01F0301229A40D0F81C3219
:100710009343C0F81C32CB69B3B9D0F80C32934381
:10072000C0F80C328C894B6864F31F434C6900EBB2
:10073000C404C4F840320C890B6864F31F434C694D
:1007400000EBC404C4F84432CB69012B16D1D0F8B5
:100750000C321343C0F80C320C884B6864F31F430F
:100760004C6900EBC404C4F840320C89CB6864F3D4
:100770001F434C6900EBC404C4F844328B69002B5E
:10078000D0F804320ED01343C0F804320B69002BAA
:10079000D0F8143208D01343C0F81432096A012982
:1007A00004D008E09343EFE79343F5E7D0F81C1239
:1007B0001143C0F81C12D0F8001221F00101C0F85A
:1007C0000012002010BD000000640040704730B5EA
:1007D00090F82040012C05D0022C03D0416A41F44E
:1007E00080215DE00468002955D02469A40754D015
:1007F0004FF4D874056804EB01142D5915F0040565
:10080000956005682D594ED0ED08556005682C5946
:1008100004F00204D4604FF4DA74056804EB0114A8
:100820002D5905F00F05156105682D59C5F30725EC
:10083000956105682C59240C54614FF4DC720468EE
:1008400002EB0112A4581C700468A458240A5C70BE
:100850000468A458240C9C700468A258120EDA7024
:100860004FF4DE72046802EB0112A4581C71046894
:10087000A458240A5C710468A458240C9C71046870
:10088000A258120EDA71006881B1016941F02001AD
:100890000161002030BDE468A8E7416A41F400111D
:1008A0004162012030BD6D0D1560AFE7C16841F0B8
:1008B0002001C160EDE72DE9F05F054600680024E6
:1008C0004669D0F804908768D0F80CB0D0F810A032
:1008D000D0F81880F10748D0F90714D001218160C1
:1008E000B80703D5284600F0F2FA0CE0780702D5E5
:1008F0004FF4006407E0380702D54FF4805402E05B
:10090000284600F0E3FAF80516D529684FF4807000
:100910008860B80503D5284600F0DBFA0CE07805BE
:1009200002D544F4005407E0380502D544F480446D
:1009300002E0284600F0CCFAF80316D529684FF4F7
:1009400080308860B80303D5284600F0C4FA0CE074
:10095000780302D544F4004407E0380302D544F498
:10096000803402E0284600F0B5FA300707D55FEA88
:10097000CB6004D52968102044F40074C860700767
:100980004FF0080707D55FEA0B7004D52868C760E9
:10099000284600F097F9B00706D52868C068800798
:1009A00002D0284600F090F9700607D55FEACA60C9
:1009B00004D52968102044F480640861B00607D586
:1009C0005FEA0A7004D528680761284600F04EFAED
:1009D000F00606D528680069800702D0284600F096
:1009E00046FAB00308D55FEAC96005D5296810202A
:1009F0004860284600F03CFAF00307D55FEA09702A
:100A000004D528684760284600F066FA300446D5C9
:100A10005FEA497040D5F00504D55FEAC87001D09F
:100A200044F00104B00504D55FEA887001D544F0B4
:100A30000204700504D55FEA487001D544F004044F
:100A4000300529D518F0700F26D008F07000402826
:100A500015D006DC102809D020280AD0302816D15D
:100A60000AE050280ED0602811D10EE044F00804AE
:100A70000DE044F010040AE044F0200407E044F0E4
:100A8000400404E044F0800401E044F480742868E9
:100A9000816921F070018161296804204860002C7F
:100AA00005D0686A204368622846FFF78FFEBDE8DC
:100AB000F09F70B5040003D094F8200010B104E05A
:100AC000012070BD204600F081F82068016841F0E7
:100AD0000101016000F008FB0546052604E000F076
:100AE00003FB401B0A2811D820684068C007F6D0D5
:100AF0002068016821F00201016000F0F5FA054666
:100B00000BE000F0F1FA401B0A2806D9606A40F4B5
:100B10000030606284F82060D2E720684068800777
:100B2000EFD4207E0128206801683DD021F08001AB
:100B30000160607E01282068016838D021F0400102
:100B40000160A07E01282068016833D021F02001D7
:100B50000160E07E0128206801682ED041F010017C
:100B60000160207F01282068016829D021F0080158
:100B70000160607F01282068016824D021F0040111
:100B80000160D4E902010843D4E904121143084387
:100B90006168491E08432168C86100206062012025
:100BA00084F82000002070BD41F08001C0E741F0D2
:100BB0004001C5E741F02001CAE721F01001CFE76D
:100BC00041F00801D4E741F00401D9E72DE9F043F1
:100BD00087B0044614216846FFF76DFC354B364854
:100BE000DFF8CC801968D4F800C0334A0225032608
:100BF0000927DFF8C89010300024491CC44528D1CB
:100C00001960012907D1016841F000710160006895
:100C100000F000700590106840F00200106010684D
:100C200002AB00F0020005904FF44070CDE90005E2
:100C300083E8D0006946484600F062F900220521A9
:100C4000142000F0C3FA142000F0B2FA07B0BDE897
:100C5000F083DFF86C80C445F8D1D0F800C04CF0C8
:100C6000806CC0F800C0D0F800C001290CF0806C86
:100C7000CDF814C0196007D1016841F0007101601E
:100C8000006800F000700590106840F002001060ED
:100C9000106802AB00F0020005904FF44050CDE91F
:100CA000000583E8D0006946484600F029F9CDE701
:100CB0000064004008000020303802400004024078
:100CC000006800407047000010B500686149884224
:100CD0007DD1614B002103F108026048FFF777FDE9
:100CE000002874D15C4A503A9FED5D2ADFED5D2A01
:100CF000906DE0BBB2F85100F2EE090A40BA106004
:100D000092F85310BAEE090A0B0192F8541043EA14
:100D10001113D36092F8553001F00F0143EA01211D
:100D20009161102101F010FA82ED090A0C21F0EE18
:100D3000420AB0EE620AD06801F006FA82ED0C0AAF
:100D40000C21F3EE020ABBEE020A906901F0FCF9F5
:100D5000454882ED0F0A92F850100180D2ED090A41
:100D6000C0ED010AD2ED0C0AC0ED030A00E001E07B
:100D700080ED020A906D032831D1B2F85100F2EEF5
:100D8000090A40BA506092F85310BAEE090A0B01F2
:100D900092F8541043EA1113136192F8553001F0A0
:100DA0000F0143EA0121D161102101F0CDF982ED5B
:100DB0000A0A0C21F0EE420AB0EE620A106901F054
:100DC000C3F982ED0D0A0C21F3EE020A00E03FE0C8
:100DD000BBEE020AD06901F0B7F982ED100A906DFE
:100DE00004282FD1B2F85100F2EE090A40BA9060FF
:100DF00092F85310BAEE090A0B0192F8541043EA24
:100E00001113536192F8553001F00F0143EA0121AB
:100E10001162102101F098F982ED0B0A0C21F0EE1D
:100E2000420AB0EE620A506901F08EF982ED0E0AB4
:100E30000C21F3EE020ABBEE020A106A01F084F9FB
:100E400082ED110ABDE8104002210448FFF7C1BB42
:100E500010BD000000640040B8400020E002002007
:100E600000003442000034C2F44000207047704754
:100E70007047000070B5044690F82000012804D0A7
:100E8000606A40F40020606218E0022084F82000CC
:100E90002068016821F00101016000F025F9054694
:100EA0000EE000BF00F020F9401B0A2808D9606A54
:100EB00040F400306062052084F82000012070BDFD
:100EC00020684068C007EDD1606270BD7047704710
:100ED00070477047704770477047000070B5044610
:100EE00000F002F90546601C02D004480078044472
:100EF00000F0FAF8401BA042FAD370BD0C000020AD
:100F00002DE9F84FDFF8ACA10022012403254FF0B2
:100F10000F090AF1040BAAF1040E00BF0B6804FAD2
:100F200002F63340B3426ED10F7907F00307012F69
:100F300001D0022F16D187684FEA420805FA08FC53
:100F400027EA0C07D1F80CC00CFA08FC4CEA070C95
:100F5000C0F808C04768B7430E79C6F3001696403C
:100F60003E4346600E79F643B6070AD0C6684FEA9C
:100F7000420C05FA0CF7BE438F6807FA0CF73743AB
:100F8000C7600E7906F00306022E10D1D60800EBDA
:100F90008608D8F8206057074FEAD76C09FA0CF793
:100FA000BE430F6907FA0CF73743C8F8207006688C
:100FB0004FEA420C05FA0CF7BE430F7907F003071E
:100FC00007FA0CF7374307604E6816F4403F6BD0C2
:100FD000394E376847F480473760366822F0030798
:100FE00006F480460096354E07EB060CDCF80868E0
:100FF00097074FEA177809FA08F7BE43304FB8420F
:1010000002D100271FE04FE02E4FB84201D1012747
:1010100019E02D4FB84201D1022714E02B4FB842FE
:1010200001D103270FE02A4FB84201D104270AE07B
:10103000284FB84201D1052705E0274FB84201D11A
:10104000062700E0072707FA08F73743CCF80878A7
:10105000DAF800605746D1F804C09E435FEACC2C12
:1010600000D51E433E60DBF800605F46D1F804C047
:101070009E435FEA8C2C00D51E433E60DEF8006084
:101080007746D1F804C09E435FEA8C3C00D51E43EE
:101090003E60084F083F3E68D1F804C09E435FEAB7
:1010A000CC3C00D51E433E60521C102AFFF436AFE4
:1010B000BDE8F88F083C0140443802400030014050
:1010C000000002400004024000080240000C024000
:1010D0000010024000140240001802400AB1816171
:1010E00070470904FBE70000014880687047000072
:1010F0000C0000200248816802781144816070472A
:101100000C0000200B4810B5016841F4007101602B
:10111000016841F480610160016841F480710160FF
:10112000032000F073F80F2000F006F800F024F818
:10113000002010BD003C024070B50D4D04464FF438
:101140007A712878B1FBF0F00A490968B1FBF0F038
:1011500000F020FB48B9102C07D200222146501E77
:1011600000F034F800206C6070BD012070BD0000FC
:101170000C000020180000200C4882B0016841F4E7
:1011800080410160006800F4804000900748001F23
:10119000016841F0805101600068002200F0805039
:1011A00000900F21901E02B000F010B844380240A9
:1011B000002809DB00F01F02012191404009800056
:1011C00000F1E020C0F8001170470000F0B40E4BB1
:1011D0001B680C46C3F30223C3F10705042D00D995
:1011E0000425191D072901D2002300E0DB1E01267A
:1011F00006FA05F1491E214099409E40761E164090
:101200003143F0BC00F05DBC0CED00E0064900F09D
:10121000070208684FF6FF03184040EA0220034A1D
:1012200010430860704700000CED00E00000FA0574
:101230002DE9F0470E46050065D0DFF81481D8F897
:101240000000F7B200F00F00B04207D288F800703B
:10125000D8F8000000F00F00B04254D128683D4C8F
:10126000810712D5400703D5206840F4E050206084
:101270002878000703D5206840F46040206020688B
:10128000A96820F0F000084320602878C0072DD01E
:10129000304968680839012812D0022813D0032881
:1012A00011D00968890700292DDA216821F003018E
:1012B00001432160FFF718FF814641F2883A0EE0B2
:1012C00009688903EFE709688901ECE7FFF70CFF7C
:1012D000A0EB0901514502D90320BDE8F087206841
:1012E000696800F00C00B0EB810FEFD1D8F8001066
:1012F000404601F00F01B14207D90770006800F0C5
:101300000F00B04201D00120E7E72878400705D55B
:101310002068E96820F4E05008432060287800073E
:1013200006D52068296920F4604040EAC1002060A9
:1013300000F018F82168084AC1F30311515CC84055
:101340000649086006480068FFF7F6FE0020C4E77B
:10135000003C024008380240E42700081800002042
:1013600010000020224810B5006810F00C0221483F
:1013700015D02149042A11D01D4C241F082A0FD052
:101380000C2A0CD12268236802F03F025B0221D5AF
:101390002068C0F38810A0FB010120E0084610BDC2
:1013A0002268236802F03F025B0205D52068C0F383
:1013B0008810A0FB010104E02168C1F38811A1FBA2
:1013C00000010023FEF7CEFF2168C1F30141491C53
:1013D00049000AE02168C1F38811A1FB0001002344
:1013E000FEF7C0FF2168C1F30271B0FBF1F010BD40
:1013F000083802400024F400001BB7002DE9F84F24
:1014000004007DD0DFF878B32078ABF10407C00783
:10141000A7F1040550D0DBF800105846C1F3810154
:1014200001290FD00168C1F38101022902D1396875
:10143000490207D40068C0F38100032809D1386845
:10144000400206D52868800336D560680028D8D0C9
:1014500032E06068B0F5803F10D0B0F5A02F28686A
:1014600010D020F480302860286820F48020286084
:101470006068A0B1FFF738FE06460CE0286840F42B
:101480008030F4E740F480202860F7E7FFF72CFE77
:10149000801B642876D828688003F7D50CE0FFF716
:1014A00023FE064605E000BFFFF71EFE801B6428F2
:1014B000F0D828688003F7D42078DFF8C892800736
:1014C0004FF0000A44D5DBF80010584611F00C0F1D
:1014D0000FD00168C1F38101022902D139684902A4
:1014E00007D50068C0F3810003280AD1386840029C
:1014F00007D42868800715D5E068012800D111E0DD
:101500003AE1E068B0B10120C9F80000FFF7ECFD56
:10151000064604E0FFF7E8FD801B0228BAD82868D9
:101520008007F7D52868216920F0F80040EAC1005B
:1015300028600DE0C9F800A0FFF7D6FD064604E0DC
:10154000FFF7D2FD801B02281CD828688007F7D43B
:101550002078000727D5DFF828828B48616908F1D9
:101560006C0881B101210160FFF7BEFD064604E071
:10157000FFF7BAFD801B022804D8D8F800008007C6
:10158000F6D510E089E0C0F800A0FFF7ADFD0646F3
:1015900005E000BFFFF7A8FD801B02287DD8D8F822
:1015A00000008007F6D42078400769D574484FF0D2
:1015B000000838300068C0000BD47148383001682A
:1015C00041F08051016000684FF0010800F0805048
:1015D00000906E4E3068C00511D4306840F48070C1
:1015E0003060FFF781FD009006E000BFFFF77CFD53
:1015F0000099401A022850D83068C005F6D5604ED0
:10160000A068683601280FD00528306810D020F077
:1016100001003060306820F004003060A068B8B18C
:10162000FFF762FD00900FE0306840F00100F4E742
:1016300040F004003060F7E7FFF756FD0099411ACB
:1016400041F28830814264D830688007F4D50EE0DA
:10165000FFF74AFD009007E0FFF746FD0099411AA9
:1016600041F28830814254D830688007F4D4B8F110
:10167000000F05D042483830016821F080510160E8
:10168000A069A8B3DBF80010C1F38101022947D09B
:101690000228C9F860A005D000E03AE0FFF724FD79
:1016A000044639E0FFF720FD064604E0FFF71CFD85
:1016B000801B02282DD828688001F7D4F4E907019F
:1016C0000843E168324A490802EB0141A26841EA55
:1016D00082110843217C40EA0160217D40EA0170CB
:1016E00038600120C9F86000FFF7FEFC044606E000
:1016F00044E000BFFFF7F8FC001B022809D8286867
:101700008001F7D53AE000BFFFF7EEFC001B02288E
:1017100002D90320BDE8F88F28688001F4D42DE0B9
:101720000128F7D03868E26900F48001914223D1A2
:10173000226A00F03F0191421ED147F6C071626AF1
:101740000140B1EB821F17D1A26A4FF0FF3300F4C2
:10175000403103EB5202B1EB024F0DD194F82C2033
:1017600000F07061B1EB026F06D194F8301000F018
:10177000E040B0EB017F01D00120CBE70020C9E7BA
:101780000838024000004742800E47420070004087
:101790000000FFFF10B5401EB0F1807F01D3012093
:1017A00010BD4FF0E02460610F21601700F089F94F
:1017B0000020A06107202061002010BDFEE700008E
:1017C0002DE9F041B0EE413AF0EE602A04460F46B2
:1017D0001020B2EE091AFAEE090A00F0B3F9064633
:1017E0000C209FED2F1ADFED2F0AB0EE620A00F0F9
:1017F000A9F9DFED2E2A05460C209FED2B1AF0EEFD
:10180000620AB0EE430A00F09DF903460C20B1EEE7
:10181000041AF0EE620AB0EE610A00F093F9024693
:101820000C20B3EE021AFBEE020AB0EE420A00F000
:1018300089F91F490F6000278F60CF6008270F616B
:101840004831370A01F8487F4E702E092D018E70FD
:1018500045EA1325CD700B7113094B71120142EA51
:1018600010228A71124AC87190320123154610491C
:101870002046FEF7C0FE00280FD002232A460C495E
:101880002046FEF7B8FE002807D02A462046BDE8CD
:10189000F04104230649FEF7AEBEBDE8F08100002A
:1018A00000003442000034C20000FA43000000008F
:1018B000204000200F4810B50D4901600321416010
:1018C00000214FF410228160C0E903124FF400128E
:1018D0004261017641768176C17601774177FFF7E3
:1018E000E8F8002803D0BDE81040FEF770BE10BD38
:1018F00000640040E00200200F4810B50D4901606F
:101900000321416000214FF410228160C0E90312DD
:101910004FF400124261017641768176C1760177FB
:101920004177FFF7C6F8002803D0BDE81040FEF766
:101930004EBE10BD006800400803002010B58EB0F8
:101940001C220B496846FEF784FD0021684600F022
:10195000A7F9084C06491C2220601C3107A8FEF795
:1019600078FD002107A800F09BF960600EB010BD63
:10197000AC2700080000002070B586B0142168462E
:10198000FEF799FD1A480024016841F00401016046
:10199000016801F004010591016841F080010160D6
:1019A000016801F080010591016841F002010160C8
:1019B000016801F002010591016841F00101016037
:1019C00000680C4E00F0010042F210050590012263
:1019D00029463046FFF782FB01200095CDE901043E
:1019E000694630460394FFF78BFA06B070BD0000DD
:1019F0003038024000080240FEE7FEE7012000F018
:101A000043F9FBE710B5FFF775FB00F0F3FD012884
:101A100003D0BDE8104000F07FBD10BD30B593B0DD
:101A200034216846FEF747FD14210DA8FEF743FD5B
:101A30001D480025016841F080510160006800F0F8
:101A4000805012901948016841F4404101600068DB
:101A5000022400F440401290012000900004019004
:101A60008001CDE9064006200890A820CDE90904B0
:101A70000B9468460C94FFF7C1FC08B172B6FEE700
:101A80000DA90F2081E831004FF4A05010904FF4C1
:101A90008050119005210DA8FFF7CAFB002801D046
:101AA00072B6FEE713B030BD40380240007000400F
:101AB0000248016841F470010160704788ED00E060
:101AC000FEE70907090E002804DB00F1E02080F89A
:101AD0000014704700F00F0000F1E02080F8141DA2
:101AE000704700F093F800F059F8FCE700B58BB0B0
:101AF00000200121CDE9060108910090019002909B
:101B000003900590049069460C48FEF7D9FD0B48F8
:101B1000FFF7B0F902210948FEF75BFD0E2009909E
:101B2000059069460648FEF7CBFD0548FFF7A2F988
:101B300002210348FEF74DFD0BB000BDE00200207E
:101B400008030020012131EE601A814070EE600A26
:101B5000491E00EE101AB8EEC00A20EE800AC0EE50
:101B6000010ABDEEE00A10EE100A7047FFF7CAFA4C
:101B7000FFF754FFFFF700FFFFF79CFEFFF7BCFEE7
:101B8000FFF7B4FFFFF7DAFE00F085F8FEE7014645
:101B90000020842900D0C81C704700009FED0A0A6D
:101BA0000A48F0EE000AB0EE402A80ED050AC0EDCA
:101BB000040A80ED062AD0ED091A90ED071A018873
:101BC0000348FFF7FDBD000000000000F4400020C6
:101BD000E002002010B5030C089A81B206D0012B58
:101BE0000DD0022B0ED101F5007189B208230648F1
:101BF000FEF7CCFCBDE810400A20FFF76FB901F5F5
:101C00008071F2E710BD0000E002002010B51A4C10
:101C1000012288B051032046FFF760FA002210210C
:101C20002046FFF75BFA4FF47A70FFF757F9134C31
:101C300000200221608001206085A4F852102080DD
:101C400021850320A4F850009FED0D0A0D4884ED76
:101C5000070A84ED080AB7EE000A84ED090A069027
:101C6000182204F110016846FEF7F3FB94E80F0018
:101C7000FFF7B0FF08B010BD00080240F44000209C
:101C8000000000008400002010B500B9012000F021
:101C900037FB002010BD10B500F058FB002010BD30
:101CA0007FB50D4604464169B0F9080081B1A169CC
:101CB00071B1FFF76CFFD4E905128DE80700D4E994
:101CC00000102B46226900F06AFC039004B070BD3E
:101CD000FFF75DFF03A9CDE90001208A2B4682B200
:101CE000D4E9001000F02EFC012801D00020EDE71F
:101CF0000398EBE72DE9F041184C0F460546E668DE
:101D00002068001D00F034FA38B9206890F82C10D3
:101D100001208840216981432161681C07D137B1C6
:101D20002168BDE8F0410E48091D00F065BA206841
:101D30003544B5424560216805D2A06BBDE8F0414D
:101D4000091D00F041BA606B091D00F03DFAA06A60
:101D5000854200D2A562BDE8F08100001C00002091
:101D60000C0400202DE9F041054600F051FA2E4CFC
:101D7000A068401CA06020682C4F10B1606940B37F
:101D80002DE02560A068012829D1002606EB8600F9
:101D900007EB800000F00AFA761C072EF6D32348E2
:101DA0008C3000F003FA2148A03000F0FFF91F4802
:101DB000B43000F0FBF91D48C83000F0F7F91B48BB
:101DC000DC3000F0F3F919488C3060631430A06304
:101DD00005E02068E96AC06A884200D82560606A28
:101DE000401C6062E96A012022698840104320613A
:101DF00001EB810007EB8000291D00F0FDF900F0E8
:101E000027FA606900280CD02068E96AC06A884215
:101E100007D207494FF080500860BFF34F8FBFF3E0
:101E20006F8FBDE8F08100001C000020300300200F
:101E300004ED00E010B5044690F8510058B10128B7
:101E40000CD002280FD0502080F31188BFF34F8FA1
:101E5000BFF36F8FFEE7206B00F00EFA2046BDE85F
:101E6000104000F009BA10BD10484FF470514207FD
:101E700006D0C01D0D4920F00700411AC1F5705170
:101E80000B4A00230144C2E900030839183A21F043
:101E9000070111604B600B600B1AC0E900139360DF
:101EA0004FF0004053605061704700002004002054
:101EB00070000020144E154CA6F1C8074FF0805852
:101EC000DFF84C9012E000BF00F0A2F9F068C5689E
:101ED000281D00F04DF9A068401EA0606068401EFB
:101EE000606000F0B5F92846FFF7A4FF606800289D
:101EF000EAD138680128F9D9C9F80080BFF34F8FBB
:101F0000BFF36F8FF2E70000F80300201C000020F1
:101F100004ED00E02DE9F0479A46DDE909848146A9
:101F20006FF00303206B03EB82021044089E20F045
:101F30000707780707D0502080F31188BFF34F8F31
:101F4000BFF36F8FFEE7002561B1002023180A5C04
:101F500083F834200A5C12B1401C1028F6D384F8B0
:101F6000435001E084F83450072E00D30626E66281
:101F7000C4E91165201D00F024F904F1180000F0F7
:101F800020F92461C6F107006462A061E56484F869
:101F9000505052464946384600F0C0F82060B8F12B
:101FA000000F01D0C8F80040BDE8F08730B51149F6
:101FB00000E011460A688242FBD34B685C188442F9
:101FC00003D1406818444860084643681C1894428E
:101FD00009D1084C183C2468A24209D052681A441E
:101FE00042600A6812680260814200D0086030BD19
:101FF0000460F9E7700000200648416B096829B1C8
:10200000416BC968C9684968816270474FF0FF3108
:10201000FAE700001C00002008484068401C4FF010
:10202000500080F3118804D0BFF34F8FBFF36F8F40
:10203000FEE7BFF34F8FBFF36F8FFEE778000020FE
:102040002DE9F0410546002700F0B6F9324E306820
:1020500008B9FFF709FF706905424ED1C5B30835CD
:1020600068070ED005F00700C0F1080005446807B6
:1020700007D0502080F31188BFF34F8FBFF36F8FCD
:10208000FEE72DB37068854237D8234818300146E3
:102090000C6801E020460C466168A94202D2216822
:1020A0000029F7D131688C4227D007682168016088
:1020B00060680837411B10290FD96019420708D002
:1020C000502080F31188BFF34F8FBFF36F8FFEE76F
:1020D00013E041606560FFF769FF61687068401A4E
:1020E0007060B268904200D2B06070690143002015
:1020F000C4E90001F068401CF06000F0EFFA7807D6
:1021000007D0502080F31188BFF34F8FBFF36F8F3C
:10211000FEE73846BDE8F0815800002010B5031FE7
:102120004FF080741C601B1F21F001011960191F02
:10213000044B0B6014390A60091F6FF00202443827
:102140000A6010BD1920000801EE100A70EEC00AE6
:102150000120B8EEC11A8840401E21EE201A00EE80
:10216000900AF8EEE01AC1EE210A30EE800A7047BC
:10217000D0E9013201699A60D0E901235A604A68C6
:10218000824201D182684A60002202610868401ED2
:102190000860086870470000034B036003F15400B7
:1021A00008608020106070478C00002000F108015A
:1021B0004FF0FF32C0E90112C160016100210160EE
:1021C000704700210161704730B50B685A1C02D07E
:1021D00000F1080202E0026904E022465468256822
:1021E0009D42FAD953684B6099608A6051600861DA
:1021F0000168491C016030BD42684A6093688B6089
:1022000093685960916008610168491C01607047DA
:10221000502080F31188BFF34F8FBFF36F8F0A49AF
:102220004868401C486001280CD10848006810F03C
:10223000FF0F07D0502080F31188BFF34F8FBFF3FB
:102240006F8FFEE7704700007800002004ED00E08B
:102250000849486828B1401E486001D180F31188C0
:102260007047502080F31188BFF34F8FBFF36F8FFB
:10227000FEE700007800002070B500282AD0164D37
:10228000A0F1080460686969084207D1502080F312
:102290001188BFF34F8FBFF36F8FFEE722683AB10B
:1022A000502080F31188BFF34F8FBFF36F8FFEE78D
:1022B0008843606000F080F860686968084468607E
:1022C0002046FFF773FE2869401C2861BDE8704076
:1022D00000F004BA70BD0000580000204FF0E0206C
:1022E00000210161816105494FF47A720968B1FBEF
:1022F000F2F1491E41610721016170471800002079
:1023000010B5020014D00F48006B38B1502080F394
:102310001188BFF34F8FBFF36F8FFEE700F04CF8CB
:1023200000211046FFF7E6FC00F0D8F9002807D19D
:1023300005494FF080500860BFF34F8FBFF36F8F98
:1023400010BD00001C00002004ED00E010B586B0B8
:102350000024039405AA04A903A80494FFF71CFF12
:10236000DDE903010094CDE9011000230EA110481E
:10237000059A00F014F90F490028C86211D05020C6
:1023800080F31188BFF34F8FBFF36F8F4FF0FF3093
:10239000886201204861CC6006B0BDE8104000F0C2
:1023A00041B806B010BD000049444C450000000093
:1023B000B51E00081C0000200248016B491C016387
:1023C000704700001C0000201448016B11B101216E
:1023D000C16170470021C1610169B1FA81F1C1F1A8
:1023E0001F0101EB81020E4951F822306BB101EB64
:1023F000820101F108034A6852684A609A4201D199
:1024000052684A60D16801607047502080F311889B
:10241000BFF34F8FBFF36F8FFEE700001C0000205B
:10242000300300201CB537480168374A914207D174
:10243000502080F31188BFF34F8FBFF36F8FFEE7FB
:1024400000683149491E884207D1502080F3118825
:10245000BFF34F8FBFF36F8FFEE72C4908780190D1
:10246000FF20087008788DF800009DF800009DF8A6
:10247000002000F0F000904207D0502080F3118837
:10248000BFF34F8FBFF36F8FFEE79DF80000204C26
:1024900000F0500020700720A06005E09DF80020AB
:1024A00052008DF80020401E9DF800201206F5D441
:1024B000A060032807D0502080F31188BFF34F8F0E
:1024C000BFF36F8FFEE74FF44070A0600198087073
:1024D0000C482030016841F470010160016841F04E
:1024E00070410160FFF7FAFE00206060FDF7DEFE3C
:1024F0000848016841F040410160FDF7C3FE00203B
:102500001CBD000000ED00E071C20F4100E400E0DE
:102510007800002034EF00E010B5502080F31188DF
:10252000BFF34F8FBFF36F8F00F072F818B10449FB
:102530004FF080500860002080F3118810BD00002B
:1025400004ED00E02DE9FF5F8346DDE90E87994643
:1025500016468A469000FFF773FD05001CD05420F4
:10256000FFF76EFD040014D00020256384F85100AD
:10257000CDE90240CDE900874B46324651465846E8
:10258000FFF7C8FC2046FFF7EDFB012004B0BDE8D3
:10259000F09F2846FFF770FE4FF0FF30F6E7F0B5EA
:1025A00085B0DDE90B640A9DA6B1DCB15427009724
:1025B0002663022684F85160002604AFCDE9024666
:1025C000CDE90057FFF7A6FC2046FFF7CBFB0498A8
:1025D00005B0F0BD502080F31188BFF34F8FBFF3DB
:1025E0006F8FFEE7502080F31188BFF34F8FBFF34A
:1025F0006F8FFEE70548416919B1006B18B10020E3
:102600007047012070470220704700001C00002026
:102610002DE9F0412F4C0026206B28B1A069401C09
:10262000A0613046BDE8F081E5686D1CE56013D11E
:10263000606B006838B1502080F31188BFF34F8F72
:10264000BFF36F8FFEE7606BA16B6163A063206ACD
:10265000401C2062FFF7D0FCA06ADFF87C80854236
:1026600009D3606B0068A0B1606BC068C768786808
:10267000854211D2A0622068C06A00EB800158F840
:102680002100012800D90126E0690028C9D00126CF
:10269000C7E74FF0FF30EDE7381DFFF769FDB86A77
:1026A00018B107F11800FFF763FDF96A01202269EC
:1026B00088401043206101EB810108EB8100391D46
:1026C000FFF79AFDF86A2168C96A8842C9D30126D2
:1026D000C7E700001C000020300300202DE9F04770
:1026E0002C4D00242746286B38B1FFF791FD286B4D
:1026F000401E2863286B40B146E0502080F31188CB
:10270000BFF34F8FBFF36F8FFEE7A968224E012002
:10271000D1B3A6F1B40980463068E8B1F068C46866
:1027200004F11800FFF724FD201DFFF721FDE06AEA
:102730002A6908FA00F11143296100EB800109EBD5
:102740008100211DFFF758FDE06A2968C96A8842A7
:10275000E2D3C5F81C80DFE70CB1FFF74DFCAC6994
:1027600044B14646FFF754FF00B1EE61641EF9D153
:102770000020A861E86938B10849012738070860D6
:10278000BFF34F8FBFF36F8FFFF762FD3846BDE891
:10279000F08700001C000020E403002004ED00E0AE
:1027A0004FF04070E1EE100A70470000002800086A
:1027B000FD1900080000000000000000800000007B
:1027C0000000000000000000F4270008E31A0008E1
:1027D0000200000000000000800000000000000077
:1027E00000000000000000000000000001020304DF
:1027F0000607080941524D5F5441534B0000000049
:1028000064656661756C745461736B002C280008F4
:10281000000000208C00000000020008B82800081A
:102820008C0000206C4700001C0200080000000023
:102830000000000000000000010000001000000087
:10284000000000000024F400000000000000000070
:102850000000000000000000000000000000000078
:102860000000000000000000000000000000000068
:102870000000000000000000000000000000000058
:102880000000000000000000000000000000000048
:102890000000000000000000000000000000000038
:1028A0000000000000000000AAAAAAAA0000000080
:0828B000FFFFFFFFFFFFFFFC2B
:04000005080001C529
:00000001FF
